:020000040000FA
:040000000AEF00F013
:100008007F82F2B494EC0FF07F9211009EEF0BF018
:10001800900EAB6E100EAF6E040EB06E260EAC6E68
:10002800B8861200526E43EC00F00009D8B4FBD732
:1000380052C0ADFF12001104D8A403D0116A010EFA
:100048001200000E1200566E5650060DF3506FEC5B
:100058000EF012003150D8A402D0010E1200000E8A
:100068001200C450546EC350526E54C053F0120064
:10007800636E010E616E63505BEC0DF012009EA87A
:1000880002D0010E1200000E12009EAA02D0010E2C
:100098001200000E1200526E52C024F0010E256E9E
:1000A8001200C2B202D0010E1200000E1200F28E2F
:1000B800F28CD09EF28AF19E12007B0E526E010ED7
:1000C800536E1200B6C152F0B7C153F0120052C0BD
:1000D800A1F053C0A2F0120052C0A3F053C0A4F084
:1000E800120052C0A5F053C0A6F0120052C032F060
:1000F800010E316E120052C09FF053C0A0F01200E2
:10010800920E526E010E536E1200030E1DEC0FF08C
:100118001200526E5228010B1200010E266E1200B8
:10012800010E7A6E12000001C05112003D6A3C6A4D
:100138001200010E186E1200010E306E1200010E30
:0F014800276E1200010E2F6E120001010101112E
:10015800AE501200266A12007A6A1200446A12002F
:1001680044501200C1511200BF511200C251120076
:1001780033501200356A12001E501200305012001F
:100188003550120036501200375012003850120005
:1001980012501200C28212003D501200236A12004F
:1001A8002E6A1200235012002E5012002250120004
:1001B8002D501200215012002C50120039501200FC
:0701C8003A5012007B011206
:10020000000000008690A89A818B959F576EC74882
:10021000FF35851E797468596F61517E08090A0B94
:10022000BAB8B4B63E264E6F752050726F647563CF
:100230007465000D0A4552524F520D0A00004E6F70
:100240007520416E696D616C000D0A4F4B0D0A00FF
:100250000050696E7A656C6C0047616C6C696E6108
:10026000005065726E696C00436176616C6C004C85
:100270006C657400506F72630056616361004F7566
:10028000004D440D0A0053450D0A004D4C0D0A0067
:100290004D520D0A0053530D0A004D550D0A0053DF
:1002A000550D0A00410D0A00460D0A0044413A006E
:0D02B00044503A0043004700500056000043
:1002BE00D8EC00F00009D8B413D0410E716EDCEC0E
:1002CE0000F0726EE0EC00F0736ED4EC00F071C0D2
:1002DE0052F072C053F073C054F0B4EC0EF084D1EF
:1002EE00D6EC00F00009D8B47FD1500E746EDAEC63
:1002FE0000F0756EDEEC00F0766ED2EC00F074C09D
:10030E0052F075C053F076C054F0B4EC0EF06CD1D0
:10031E004B50D8A41AD0D0EC00F00009D8B415D0A8
:10032E00A1EC0FF0000E636E000EF5EC0EF084ECF7
:10033E0000F052C0DEF053C0DFF04C6A4D6A0A0E78
:10034E004E6E010E4B6E050E4D6E5150D8B412000E
:10035E004B6A140E4E6E1200E4EC00F0786EE2EC76
:10036E0000F0776E010E636E000EF5EC0EF0140EBB
:10037E0078600AD00A0E786001D002D0010E01D04A
:10038E00000E696E6A6A04D0000E6A6E020E696E05
:10039E006950300F0001F16F140E786012D00A0E02
:1003AE00786004D078C06DF06E6A06D0F60E7824B0
:1003BE006D6E6E6AFF0E6E226DC06BF06EC06CF0CD
:1003CE0006D0EC0E78246B6E6C6AFF0E6C226B50AE
:1003DE00300FF26F2F0EF36F0A0E776001D002D03E
:1003EE00010E01D0000E300FF46F0A0E776004D0AC
:1003FE0077C06FF0706A06D0F60E77246F6E706A53
:10040E00FF0E70226F50300FF56F2F0EF66F320EFB
:10041E00F76F300EF86F320EF96F360EFA6FFB6B08
:10042E00F10EDE6FDF6B4C6A4D6A0A0E4E6E1200D5
:10043E003FEC0EF052C0CFF053C0D0F054C0D1F00C
:10044E00A1EC0FF0000E636E000EF5EC0EF0410EF7
:10045E000001CF19D8B403D0676A672A01D0676A42
:10046E006750240F686E68C0F6FF020EF76E090023
:10047E00F5CFDEF0020E0001DF6F4C6A150E4D6EE9
:10048E000A0E4E6E1200010E636E000EF5EC0EF0AB
:10049E00410E0001CF19D8B402D0010E01D0000ECA
:1004AE00040DF350140FD025676E67C0F6FF020ED1
:1004BE00F76E0900F5CFDEF0020EDF6F4C6A160EF6
:1004CE00DED7796A3A0E0001F16F792A7950F10F71
:1004DE00D96EDA6A200EDF6E792A630ED1650CD0E2
:1004EE007950F10FD96EDA6A640E526ED151B9ECB1
:1004FE000DF0300FDF6E792A090E0001D16510D094
:10050E007950F10FD96EDA6A0A0E566E0A0E526ED5
:10051E00D151B9EC0DF0E1EC0EF0300FDF6E792A0F
:10052E007950F10FD96EDA6A0A0E566E0001D1516A
:10053E00E1EC0EF0300FDF6E792A7950F10FD96EA3
:10054E00DA6ADF6AF10E0001DE6FDF6B4C6A170E9E
:10055E0096D7120E09EC0FF0180E4E6E1200120EF8
:10056E000EEC0DF0570E525C380E5358D8A01200F8
:10057E004B6A4E6A12004C500001DE25676E000E6B
:10058E00DF21686E67C0F6FF68C0F7FFF86A010EDC
:10059E00F76403D00800F55005D0F6CFE9FFF7CF8A
:1005AE00EAFFEF500009D8A404D04C6A4DC04EF0BB
:1005BE0012004C500001DE25676E000EDF21686EC2
:1005CE0067C0F6FF68C0F7FFF86A010EF76403D044
:1005DE000800F55005D0F6CFE9FFF7CFEAFFEF5050
:1005EE003CEC00F04C2A12004E50000AD8B490D6C3
:1005FE00050AD8B4B1D60F0AD8B4BDD71E0AD8B4DE
:10060E0017D7010AD8B43FD7030AD8B45AD7010A6C
:10061E00D8B49FD70F0AD8A41200A1D743EC00F08C
:10062E000009D8B412004650D8A418D04A50491820
:10063E00D8B412004950080DA60EF324016E010E17
:10064E00F420026E49508DEC00F0496E456A0001AF
:10065E00E16B476A486A010E466E120001C0D9FF6F
:10066E0002C0DAFFDF50656E020E656431D0655050
:10067E00010F5E6E5EC0F6FF020EF76E0800F550BB
:10068E0048245F6E5FC0F6FF020EF76E0800F5504D
:10069E000009D8B415D06550010F5E6E5EC0F6FF2E
:1006AE00020EF76E0800F55048245F6E5FC0F6FF2D
:1006BE00020EF76E0800F55016EC00F0482A1200F4
:1006CE00000E016E000E026E466A476A486A1200FC
:1006DE006504D8B457D067D0AC0E536E010E546E6D
:1006EE007EEC0DF0120020EE01F00150D9260250E2
:1006FE00DA22DF50646E030E646405D0000E616E64
:10070E00040E606E03D064C060F0616A6050200F0A
:10071E005E6E5EC0F6FF020EF76E0800F5CF53F068
:10072E00020E546E7EEC0DF01200240E16EC00F04C
:10073E00030E476E1200040E5A6E240E5B6E20EEF0
:10074E0002F00150D9260250DA22DF50F3EC09F004
:10075E00120020EE03F00150D9260250DA22DF50AB
:10076E00D8B402D0960E01D0A40E636E63C062F0B0
:10077E0062C053F0000E546E7EEC0DF00009D8A44A
:10078E0012009ED74750000AD8B4A6D7010AD8B493
:10079E00AAD7030AD8B4C9D7010AD8B4CCD7070A46
:1007AE00D8A41200D6D7020E6518D8A412003FD0D6
:1007BE00B00E536E010E546E7EEC0DF01200020E52
:1007CE005A6E240E5B6E20EE04F00150D9260250B4
:1007DE00DA22DF50F3EC09F01200030E5A6E240EEB
:1007EE005B6E20EE05F00150D9260250DA22DF5062
:1007FE00F3EC09F01200040E5A6E240E5B6E20EE1E
:10080E0006F00150D9260250DA22DF50F3EC09F03F
:10081E001200000E5A6E0A0E5B6E20EE07F00150AB
:10082E00D9260250DA22DF50F3EC09F0A7D7475051
:10083E00000AD8B4BDD7010AD8B4C1D7030AD8B4B8
:10084E00CCD7010AD8B4D7D7070AD8A41200E1D75B
:10085E0066EC00F052C058F053C059F0D7D0185083
:10086E00D8B41200010E176E120014505824D96E0F
:10087E00000E5920DA6E0D0EDE18D8A410D01650C8
:10088E00E20FD96EDA6ADF6A166A000E0001D56FC2
:10089E00000ED46F136A040E176E142A1200145031
:1008AE005824D96E000E5920DA6E240EDE18D8A404
:1008BE000AD01650E20FD96EDA6ADF6A166A142A67
:1008CE00020E176E120014505824D96E000E5920C5
:1008DE00DA6E1650E20FE16EE26ADFCFE7FF142AFE
:1008EE00162A12001550D8A408D0E20E526E7AECD9
:1008FE0000F0152A070E176E1200000E0001D56FBC
:10090E00000ED46F136A040E176E12001350E20F0E
:10091E00D96EDA6ADF50D8B41CD00A0E0001D403A7
:10092E00F3CF54F0F4CF55F0D503F35055261350B2
:10093E00E20FD96EDA6ADF50566E56505426000E0C
:10094E005522D00E5424D46FFF0E5520D56F132A86
:10095E001200050E176E1200590E546E020E556ED1
:10096E0054500001D403F3CF56F0F4CF57F0D50313
:10097E00F35057265550D403F350572656C05AF00D
:10098E0057C05BF01504D8A407D05AC052F05BC014
:10099E0053F07FEC00F023D0020E1518D8A407D028
:1009AE005AC052F05BC053F06BEC00F018D0030E3F
:1009BE001518D8A407D05AC052F05BC053F070EC93
:1009CE0000F00DD0040E1518D8A409D05AC052F05C
:1009DE005BC053F075EC00F0060E176E1200152A70
:1009EE00136A40D7136A146A156A166A000E00015C
:1009FE00D56F000ED46FA0EC00F0186A176AF8ECF1
:100A0E000FF012002EEC00F000092AD71750000A42
:100A1E00D8B425D7010AD8B428D7030AD8B462D7D8
:100A2E00060AD8B473D7010AD8B496D7030AD8B435
:100A3E00D9D7010AD8A41200E5D7BBD02750D8B415
:100A4E0012002550D8B403D0020E286E12006E6A22
:100A5E006E501C0F656E65C0F6FF020EF76E080035
:100A6E00F5500EEC0DF0040E05D0D89055325432E0
:100A7E0053325232E82EF9D76E50020DF3500C0F4E
:100A8E00666E66C0F6FF020EF76E0900F550525CF8
:100A9E000900F5505358D8A010D06E501C0F656E3B
:100AAE0065C0F6FF020EF76E0800F55009EC0FF068
:100ABE006EC01FF0206A282A12006E2A030E6E6482
:100ACE00C7D71200BCEC00F0206040D0205084EC60
:100ADE000CF020EE68F0050EEBCFDBFFE806FCE233
:100AEE001F506818D8A430D020EE68F000EE52F0F7
:100AFE00050EDBCFEBFFE806FCE2CAEC00F0586E09
:100B0E00C8EC00F0596EC6EC00F05A6E58EC0BF0C3
:100B1E000009D8A402D0010E01D0000E676E6750F6
:100B2E00D8B412D02650D8A40FD01F50BF0FD96EF4
:100B3E00DA6ADF2A1FC022F01F50BF0FD96EDA6AA1
:100B4E00DF50216E010E236E202A1200280612009D
:100B5E000001C251D8B42AD0C20728D00001C25118
:100B6E00D8A4C207C051D8B421D0C0071FD0010EDF
:100B7E000001BF6503D0020EBF5F18D0BF6B16D049
:100B8E00010E0001C16503D0020EC15F0FD0C16B13
:100B9E000DD02450000AD8B4DBD7010AD8B4DED762
:100BAE00030AD8B4E4D7010AD8B4EAD7256A286A6A
:100BBE0012002850000AD8B441D7010AD8B482D7FF
:100BCE00030AD8A41200E5D794D042C05FF05F4666
:100BDE005F46C2505F18C30B5F18C26ECEEC00F0BA
:100BEE00432A120055EC00F00009D8B4120035EC7F
:100BFE0000F052C0DAF053C0DBF04250D8A405D05A
:100C0E00DAC0D8F0DBC0D9F00FD04204D8A405D09A
:100C1E00DAC0D6F0DBC0D7F007D0DAC0DCF0DBC02C
:100C2E00DDF0030E436E1200422A432A12000D0E0F
:100C3E000EEC0DF0650E525C090E5358D8A004D080
:100C4E00416A406A3F6A3E6A5E0E0001D85D010E3F
:100C5E00D959D8B00CD04150D8A409D0080E1DECEB
:100C6E000FF0010E416E0D0E09EC0FF035D0BD0EDA
:100C7E00D85D020ED959D8A00CD04050D8A409D0B6
:100C8E00040E1DEC0FF0010E406E0D0E09EC0FF070
:100C9E0023D05E0ED65D010ED759D8B00CD03F5082
:100CAE00D8A409D0060E1DEC0FF0010E3F6E0D0EEE
:100CBE0009EC0FF011D0BD0ED65D020ED759D8A09B
:100CCE000BD03E50D8A408D0070E1DEC0FF0010E2D
:100CDE003E6E0D0E09EC0FF0436A1200210E00015C
:100CEE00DC5D030EDD59D8B002D0010E446E426AAF
:100CFE00F3D74350000AD8B468D7010AD8B472D7D4
:100D0E00030AD8B494D7010AD8A41200E7D793D017
:100D1E000C500B18D8B412000B50020D5F0EF324BA
:100D2E00D96E010EF420DA6EDECFD2F0DDCFD3F025
:100D3E000B28070B0B6E0A6A030E0E6E12000A507A
:100D4E000001D225616E000ED321626E61C0F6FFE6
:100D5E0062C0F7FFF86A010EF76403D00800F55081
:100D6E0005D0F6CFE9FFF7CFEAFFEF500009D8A480
:100D7E0007D0000E0001D26F000ED36F0E6A120064
:100D8E007B50D8B412003FEC0FF05F506010D8B417
:100D9E0012007B6A0A500001D225616E000ED3212B
:100DAE00626E61C0F6FF62C0F7FFF86A010EF7646B
:100DBE0003D00800F55005D0F6CFE9FFF7CFEAFFD4
:100DCE00EF500D6E0A2A8290096A070E09EC0FF099
:100DDE00010E0E6E12003FEC0FF05F506010D8B493
:100DEE00120009C061F00DC062F0612A02D0D890E5
:100DFE006232612EFCD7010E621682506218FE0B13
:100E0E006218826E070E09EC0FF0092A080E0918F7
:100E1E00D8A41200020E0E6E12003FEC0FF05F50BF
:100E2E006010D8B412008280096A010E7B6E070E24
:100E3E0009EC0FF081D70E50000AD8B469D7010A19
:100E4E00D8B4C9D7030AD8B4E8D7010AD8A4120077
:100E5E0076D7040E0EEC0DF0C80E525C120E5358DF
:100E6E00D8A005D0040E09EC0FF09DEC0DF01FEC90
:100E7E0000F00009D8B41200CCEC00F05F6E0D0E3D
:100E8E005F18D8B40BD03450800FD96EDA6A5FC0B9
:100E9E00DFFF342A5F50C4EC0FF012000E0E3460E8
:100EAE000AD0330E526E5250D8A4020E536ECBECB3
:100EBE000EF0346A12003450800FD96EDA6ADF6A8F
:100ECE00000180510A0DF3508125F00F3A6E8351C7
:100EDE000A0DF3508425F00F396E86510A0DF3502A
:100EEE008725F00F386E89510A0DF3508A25F00FC1
:100EFE00376E8C510A0DF3508D25F00F366E346A15
:100F0E003950D8B422D00D0E39601FD03A50D8B413
:100F1E001CD0200E3A6019D0180E386016D03C0E38
:100F2E00376013D03C0E366010D02F0E8219D8A425
:100F3E000CD0200E8519D8A408D03A0E8819D8A442
:100F4E0004D03A0E8B19D8B409D0330E526E5250CB
:100F5E00D8A4020E536ECBEC0EF01200490E526E58
:100F6E005250D8A4020E536ECBEC0EF0010E356E1D
:100F7E001200DCEC0BF0736E7350D8B412005ED01E
:100F8E009DEC00F07BD051EC0AF0736E77D097ECAD
:100F9E0000F0556EBAEC00F0566EB6EC00F0576EDF
:100FAE00B8EC00F026EC0EF0736A68D066EC00F038
:100FBE0052C0D9FF53C0DAFFDF50D00F4FEC00F014
:100FCE00F3D77AEC0FF0F0D7B0EC00F091EC00F024
:100FDE00EBD794EC00F0AEEC00F0E6D77D50D8B431
:100FEE0007D0100E09EC0FF07D6AB2EC00F046D07F
:100FFE00100E0EEC0DF0E90E525C5D0E5358D8A09B
:10100E003DD0B4EC00F00009D8B410D066EC00F07E
:10101E0052C060F053C061F04BEC08F0726E72502B
:10102E0027EC00F0090E1DEC0FF003D00A0E1DEC9C
:10103E000FF0010E7D6EB2EC00F0B6D77350706EED
:10104E00716A7150000AD8A419D07050010AD8B430
:10105E0097D7030AD8B497D7010AD8B498D7070AF6
:10106E00D8B4A4D7010AD8B4ACD7030AD8B4ACD735
:10107E00010AD8B4AED70F0AD8B4B0D77350D8A4DB
:10108E001200F8EC0FF0120060C0D9FF61C0DAFF59
:10109E00560EDE18D8A402D06D6A2BD060C0D9FFD0
:1010AE0061C0DAFF500EDE18D8A40CD020EE01F08D
:1010BE006050D9266150DA224F0EDE18D8A402D025
:1010CE00010E13D060C0D9FF61C0DAFF430EDE18E7
:1010DE00D8A402D0020E09D060C0D9FF61C0DAFFD9
:1010EE00470EDE18D8A403D0030E6D6E02D0FF0E8D
:1010FE0012006E6A01D06E2A6E506024D96E000EF8
:10110E006120DA6E240EDE18D8B409D06E50602439
:10111E00D96E000E6120DA6EDF50D8A4ECD76E5077
:10112E006024626E000E6120636E010E6224D96E21
:10113E00000E6320DA6EDF50D00F6A6EBCEC00F04A
:10114E006B6E6C6A6F6A16D06F5084EC0CF020EEEA
:10115E0064F0050EEBCFDBFFE806FCE26D50641881
:10116E00D8A407D06A506C18D8A402D06F501200C1
:10117E006C2A6F2A6B506F5CD8B0B9D7E5D757D0B1
:10118E0049EC00F00009D8B41200ACEC00F01C6E73
:10119E001D2A12000A0E1C18D8A40AD01D2A7B0E76
:1011AE001B24D96EDA6A010EDA22DF6A1B6A12007C
:1011BE007B0E1B24D96EDA6A010EDA221CC0DFFF09
:1011CE001B2A1D0612007B0E1B24D96EDA6A010E35
:1011DE00DA22DF50D8B4DCD77B0E1B24D96EDA6A44
:1011EE00010EDA223A0EDE18D8B4D2D71B2A12001C
:1011FE007B0E1B24D96EDA6A010EDA223A0EDE1845
:10120E00D8A408D07B0E1B24D96EDA6A010EDA221E
:10121E00DF6A1B2A7B0E1B240101B66FB76B010E12
:10122E00B723B6D71B6A1D6A010E1E6E12001D5023
:10123E00000AD8B4A5D7010AD8B4ACD7030AD8B4DB
:10124E00C2D7010AD8B4D4D7070AD8A41200EAD755
:10125E005AD03150D8B403D02A6A2B2A12002F50FC
:10126E00D8B42AD0E4EC0FF00009D8A425D0295028
:10127E00C30FD96EDA6A0F0EDF601ED029500EEC46
:10128E000DF0040E05D0D8905532543253325232EE
:10129E00E82EF9D72950020DF3509F0FD96EDA6A56
:1012AE00DE50525CDE505358D8A006D02950D5ECF3
:1012BE000DF0295009EC0FF02928030B296E1200AE
:1012CE0032502A24D96EDA6ADF50D8B4C6D7130E3C
:1012DE002A60C3D732502A24D96EDA6A920E2A2493
:1012EE00E16EE26A010EE222DFCFE7FF2A2A120048
:1012FE00920E2A24D96EDA6A010EDA22DF6A2A6A7F
:10130E00316A2B6A12002B50000AD8B4A2D7010AF8
:10131E00D8B4D6D7030AD8A41200EAD74FD082B2D7
:10132E0012007C50D8B412007C6A010E106E060EAC
:10133E0009EC0FF012004EEC0FF05F506010D8B4B5
:10134E001200020E106E126A0F6A82A202D0010EF5
:10135E0001D0000E12120F2A050E09EC0FF012002A
:10136E005DEC0FF05F506010D8B412000FC061F04A
:10137E0082A203D0626A622A01D0626A612A02D016
:10138E00D8906236612EFCD7625012120F2A050ECB
:10139E0009EC0FF0080E0F18D8A41200030E106EF1
:1013AE0012005DEC0FF05F506010D8B41200010E09
:1013BE00116E010E7C6E0F6A106A12001050000A38
:1013CE00D8B4ADD7010AD8B4B6D7030AD8B4C8D7A3
:1013DE00010AD8A41200E5D75C6E4550D8A433D0CC
:1013EE005D6A630E5C6409D0640E526E5C50B9EC9B
:1013FE000DF0300F0001CB6F5D2A090E5C6410D02A
:10140E005D50CB0FD96EDA6A0A0E566E0A0E526E08
:10141E005C50B9EC0DF0E1EC0EF0300FDF6E5D2A92
:10142E005D50CB0FD96EDA6A0A0E566E5C50E1EC47
:10143E000EF0300FDF6E5D2A5D50CB0FD96EDA6A7B
:10144E00DF6A010E456E4850CB0FD96EDA6ADF5057
:10145E00D8B40AD04850CB0FD96EDA6ADF5016ECEA
:10146E0000F0482A010E1200486A240E5B18D8A418
:10147E0004D0240E16EC00F006D00D0E16EC00F083
:10148E000A0E16EC00F00001E16B456A5AC047F0F7
:10149E00000E12001A50D8A403D0BCEC00F0196E46
:1014AE001950D8A404D0F8EC0FF0000E1200DAECAC
:1014BE000FF00009D8B405D0E4EC0FF00009D8B451
:1014CE0002D0020E120019501A18D8A407D0050E19
:1014DE001DEC0FF0F8EC0FF01A6AE7D71A5084ECF7
:1014EE000CF020EE69F0050EEBCFDBFFE806FCE218
:1014FE0020EE69F000EE52F0050EDBCFEBFFE806B2
:10150E00FCE2CAEC00F0586EC8EC00F0596EC6EC66
:10151E0000F05A6E58EC0BF0666E676A686A08D077
:10152E00685084EC0CF06950EE18D8B4672A682A1B
:10153E001A50685CD8A0F4D767C055F066C056F054
:10154E00695058EC0EF01A2ABCD795929594959640
:10155E00000E606EC00E5F6E87EC0FF0959E959C30
:10156E00959A95988C928C948C86030ECFEC0FF0F6
:10157E008C96000E606E180E5F6E87EC0FF08C86E8
:10158E00030ECFEC0FF08C96000E606E050E5F6EA4
:10159E0087EC0FF08C86030ECFEC0FF08C96000EBE
:1015AE00606E050E5F6E87EC0FF08C86020ECFEC30
:1015BE000FF08C96000E606E050E5F6E87EC0FF0CE
:1015CE00000E616E280E5BEC0DF0000E616E080EC3
:1015DE005BEC0DF0000E616E010E5BEC0DF0000E7B
:1015EE00606E080E5F6E87EC0FF0000E616E060ED9
:1015FE005BEC0DF0000E616E0C0E5BEC0DF012004C
:10160E0042D081B01200010E3B6E0C0E09EC0FF0B1
:10161E0012000C0E0EEC0DF055505410531004E148
:10162E004D0E525CD8A005D081B003D0020E3B6E99
:10163E0012000C0E0EEC0DF055505410531004E128
:10164E004D0E525CD8A0120081A012003B6A12000F
:10165E0081A01200030E3B6E89EC00F00C0E09EC1B
:10166E000FF012000C0E0EEC0DF0555054105310DE
:10167E0004E14D0E525CD8A002D081A0D7D70C0E3B
:10168E000EEC0DF0D9D73B50000AD8B4BAD7010AE8
:10169E00D8B4BFD7030AD8B4DBD7010AD8A4120036
:1016AE00E1D755505B6E5C6AC40E5B02F3CF5DF002
:1016BE00F4CF5EF05C02F3505E26FF0E5B02F35039
:1016CE005E2658503C0DF3CF5FF0F4CF60F05950CA
:1016DE005F26000E60225D505F24616E5E506020BA
:1016EE00626E5650615C636E6250D8A06204646E86
:1016FE0064AE04D0A00E6326050E642264BE08D02C
:10170E00645004E1030E635CD8A002D0010E1200F7
:10171E00020E63186410D8A408D057505A5CD8A093
:10172E0002D0010E1200000E1200000E1200CC0E9E
:10173E00F66E010EF76E000EF86E0900F5CFB6F1DB
:10174E000900F5CFB7F1CE0EF66E010EF76E000E54
:10175E00F86E0900F5CFFEF0520EF66E010EF76E22
:10176E00000EF86E00EE7AF010EE05F00900F5CFDF
:10177E00EEFFE550E150FAE101EE00F0B60EEE6A32
:10178E00E806FDE100EE80F07E0EEE6AE806FDE171
:10179E0000EE01F0510EEE6AE806FDE17F907F92B9
:1017AE00000EF86E000150EF0CF0C0EC00F00009D6
:1017BE00D8A402D0000E120061EC00F052C054F01A
:1017CE0053C055F012D0010E1200030E1200020E7D
:1017DE001200050E1200040E1200080E1200060E64
:1017EE001200070E1200090E120054C0D9FF55C088
:1017FE00DAFFDF50410AD8B4EAD7020AD8B4EBD7E1
:10180E00060AD8B4EAD70C0AD8B4DDD7050AD8B47C
:10181E00E6D71C0AD8B4D9D7020AD8B4DAD7010A47
:10182E00D8B4DFD7E0D72CD0C4EC00F00009D8B480
:10183E001200C2EC00F00009D8B412003C2A010ECE
:10184E003D6E1200A6EC00F0A3EC00F0000E09ECC9
:10185E000FF0010E09EC0FF0020E09EC0FF0030E63
:10186E0009EC0FF0080E09EC0FF0090E09EC0FF061
:10187E000A0E09EC0FF00B0E09EC0FF03C2A1200C9
:10188E003C50000AD8B4D0D7010AD8B4DBD7030A2B
:10189E0012000CEC00F0000EADEC0FF05BEC00F063
:1018AE002EEC0FF0EEEC0FF09DEC0EF0100E636EC2
:1018BE00020EACEC0AF0040E09EC0FF030EC07F05F
:1018CE0015EC03F0EBEC05F0C6EC08F0C0EC07F0FD
:1018DE002FEC09F095EC09F08EEC06F01AEC0CF0FA
:1018EE002FEC04F024EC05F0B7EC0CF007EC0BF049
:1018FE00E5EC0CF05FEC01F0E1D7586E5850060D98
:10190E00F3CF59F0A69EA69C59C0A9FFA680A8CFDA
:10191E005AF05928A96EA680A8CF5BF05950020F35
:10192E00A96EA680A8CF5CF05950030FA96EA680B1
:10193E00A8CF5DF05950040FA96EA680A8CF5EF017
:10194E005950050FA96EA680A8CF5FF020EE5AF071
:10195E0000EE52F0050EDBCFEBFFE806FCE21200C4
:10196E0025D008500718D8B412000750970FD96E1B
:10197E00DA6ADF50A96E07508F0FD96EDA6ADF5020
:10198E00A86EA69EA69CA684F29E550EA76EAA0EC3
:10199E00A76EA682F28E010E066E1200A6B212007D
:1019AE00A6940728070B076E066A12000650000A57
:1019BE00D8B4D7D7010AD8A41200F0D77A50D8A439
:1019CE0002D089981200032A0350045CD8A002D0DA
:1019DE00898801D08998630E03641200036A0FD0C0
:1019EE00C80E046002D0042A1200010E056E120009
:1019FE000450D8B402D004061200056A1200055035
:101A0E00000AD8B4EDD7010AD8A41200F1D75E6E41
:101A1E00F29EC7C05AF0C8C05BF0C9C05CF0CAC025
:101A2E005DF0F28E5E50050D000EF324D96E010EA0
:101A3E00F420DA6EDECF56F0DECF57F0DECF58F060
:101A4E00DECF59F056505A5C526E57505B58536E5B
:101A5E0058505C58546E59505D58556E1200546A69
:101A6E0007D0542A130E5418D8A402D0000E120018
:101A7E005450050D040EF324D96E010EF420DA6EC7
:101A8E00DE04D8B4EED75450050D040EF324D96EEF
:101A9E00010EF420DA6E010EDF6E5250D96EDA6A44
:101AAE0054C0DFFF010E1200626E959E959C959AB2
:101ABE0095986150D8B402D08C8201D08C928C94BF
:101ACE008C8662380F0BCFEC0FF08C968C866250A2
:101ADE000F0BCFEC0FF08C96958E958C958A958882
:101AEE00000E606E020E5F6E87EC0FF01200535008
:101AFE004824556E55C0F6FF020EF76E0800F550DD
:101B0E000009D8B40ED053504824556E55C0F6FF78
:101B1E00020EF76E0800F55016EC00F0482A010E82
:101B2E001200486A54C047F0000E1200362A3B0ECF
:101B3E0036641200366A372A3B0E37641200376A53
:101B4E00382A170E38641200386A3A2A1F0E3A6481
:101B5E001200010E3A6E392A0C0E39641200010E73
:101B6E00396E1200536E556A5250D8B415D0010E0C
:101B7E00546E03D0D8905236542A52AEFBD7D8901A
:101B8E0055365250535CD8A003D05250535E5580F8
:101B9E00D8905232542EF3D755501200596E170E5C
:101BAE00336401D0120059C056F03350F0EC0DF0F2
:101BBE005950C30FD96EDA6ADF2A59C02DF0595029
:101BCE00C30FD96EDA6ADF502C6E010E2E6E332AD9
:101BDE001200576E5750060DF3CF58F056C052F004
:101BEE00585086EC0EF0E4EC00F0526E582886EC5D
:101BFE000EF0E2EC00F0526E5850020F86EC0EF032
:101C0E0058506FEC0EF012004A508DEC00F0546EEE
:101C1E0049505418D8B412005350D96EDA6A4A504B
:101C2E00080DA60EF324E16E010EF420E26E070EEF
:101C3E00DBCFE3FFE806FCE254C04AF01200586E18
:101C4E0020EEA7F010EE59F0070EDBCFE3FFE8060B
:101C5E00FCE2020E596E58C05DF055C05EF056C0E3
:101C6E005FF057C060F0590E536E0BEC0EF0120081
:101C7E005050030D6F0EF324D96E010EF420DA6E60
:101C8E00DECF55F0DECF56F0DDCF57F05028030BE8
:101C9E00506E510655C052F056C053F057C054F016
:101CAE001200576E20EEAFF010EE58F0070EDBCF9D
:101CBE00E3FFE806FCE2010E586E57C059F055C01E
:101CCE005AF056C05BF0580E536E0BEC0EF012002D
:101CDE00556ECAEC00F0526E5550030F86EC0EF0A6
:101CEE00C8EC00F0526E5550040F86EC0EF0C6ECA8
:101CFE0000F0526E5550050F86EC0EF01200536E2A
:101D0E000828070B546E07505418D8B41200085008
:101D1E00970FD96EDA6A53C0DFFF08508F0FD96E56
:101D2E00DA6A52C0DFFF54C008F01200526A5250F5
:101D3E00050D040EF324D96E010EF420DA6EDF6A5F
:101D4E00522A120E5264F3D7880ED56EF70ED76E46
:101D5E00E00ED66EF294F28A1200030E516401D098
:101D6E0012004F50030D6F0EF324D96E010EF420A6
:101D7E00DA6E52C0DEFF53C0DEFF54C0DEFF4F28C6
:101D8E00030B4F6E512A12000C28070B546E0B508A
:101D9E005418D8B412000C50020D5F0EF324D96EF5
:101DAE00010EF420DA6E52C0DEFF53C0DDFF54C0C8
:101DBE000CF01200576E080E586E596AD8905734B0
:101DCE005934596ED89057365650595CD8A002D017
:101DDE005650595E582EF2D759501200646E635009
:101DEE00D8A404D0000E666E000E03D0000E666EF0
:101DFE00400E656E000E616E6450652480095BECCA
:101E0E000DF01200526EF29E5250050D000EF3248C
:101E1E00D96E010EF420DA6EC7C0DEFFC8C0DEFF39
:101E2E00C9C0DEFFCAC0DEFFF28E1200556E20EE74
:101E3E00B7F010EE56F0070EDBCFE3FFE806FCE23C
:101E4E0055C056F0560E536E0BEC0EF01200686A2B
:101E5E006850550FD96EDA6A68C0DFFF6850550FAB
:101E6E00526E36EC0DF0682A120E6864F1D712002D
:101E7E00070E0EEC0DF0535004E1020E525CD8A08A
:101E8E0002D0010E01D0000E5F6E606A1200060EC7
:101E9E000EEC0DF0535004E1030E525CD8A002D0AC
:101EAE00010E01D0000E5F6E606A1200050E0EEC80
:101EBE000DF0535004E1020E525CD8A002D0010E78
:101ECE0001D0000E5F6E606A1200526A5250BF0F50
:101EDE00D96EDA6ADF6A522A030E5264F7D7276A7E
:101EEE00286A236A1200BEEC00F0B9EC0FF06CEC1D
:101EFE000FF09AEC00F0A1EC0FF0F8EC0FF01200DE
:101F0E00110E09EC0FF0110E0EEC0DF05F50525C3D
:101F1E0060505358D8B01200F6D7F70ED76EE00EB9
:101F2E00D66EF294010E0001C727000EC823C923F6
:101F3E00CA231200000E616E010E5BEC0DF0000E56
:101F4E00606E080E5F6E87EC0FF01200526E926894
:101F5E000C0EC16E910EC06E5244E846FC0BC26E62
:101F6E00C2801200336A0001C66BC56BC46BC36BB3
:101F7E002F6A306A316A2E6A1200556E55C0FCF017
:101F8E000001FD6BFC0E526E536ACBEC0EF012008C
:101F9E00536E53C052F0523AF00E52168C500F0B35
:101FAE0052108C6E12004A508DEC00F04918D8B4C5
:101FBE0002D0010E1200000E1200010E526E0750DA
:101FCE000818D8B4A6B201D0526A52501200929894
:101FDE008998948294908B80956892968996928433
:101FEE00120001017B6B7B0EB66F010EB76F1E6A7E
:021FFE001200CF
:020000040020DA
:08000000FFFFFFFFFFFFFFFF00
:020000040030CA
:0E000000FF06191EFF8181FF03C003E00340CD
:00000001FF
